:400000000080002011000000611900006119000008B5044B1A6803F53F5302331A6001F0BFFC00BFFA46004010B5054C237833B9044B13B10448AFF300800123237010BDC7
:40004000F882FF1F0000000008380000084B10B51BB108490848AFF300800848036803B910BD074B002BFBD0BDE81040184700BF00000000FC82FF1F08380000C880FF1F20
:400080000000000008B5002001F0D8FE08BD00BF684620F007018D4619B572B6EFF311841E4B1B68DBB20F2B10D9103B23F0030202F1604202F564421168DB0003F018037F
:4000C000E0229A400A4022FA03F306E00F2B03D1134B1B681B0E00E0002383F31188114A136801331360012B01D102F031FD62B6FFF7C8FF72B684F3118802F0A3F8094A30
:400100001368013B13601BB902F02BFD02F0EFFC62B6BDE819408546704700BF04ED00E020ED00E06484FF1F08B562B645F6BF52054B1A60054A136843F00203136000202F
:4001400002F0C2F9FBE700BF14E000E010E000E030B587B002F02AFB00F016FF02F0B4FA364A136843F005031360354A03AB1068516803C3127A1A706B4606AA12E907006F
:4001800003C31A702F4B1B6993F82020012A02D1586A02F061F82B4C23469DE8070003C31A700023E36002236372236993F82020012A02D1586A02F0F5F9224B1B695D6951
:4001C0009B6873B13DB90CE0996855F8240001F0DBFE013400E000241A4B1B691A699442F2D3642000F0F8FD012000F06DFE4FF6FF71002000F060FE134801F041F90122C9
:400200001146002001F09CFCFA224FF49671012001F096FC4FF47A721146022001F090FC032001F019FC012001F016FC074802F0D7FA02F08FF907B030BD00BF10E000E083
:400240000C3800002881FF1F183800003038000000BFFDE710B400230BE0046803EB43018A00A15AC289914201D118B206E001339BB282889342F0D34FF0FF3010BC70476F
:400280002DE9F04781468846B0F80EA0FFF7E2FFB0F1FF3F6FD0D9F8001000EB400293001A460B445D681DB113460B441E8900E00026002D63D0002E65D0002456E027464F
:4002C00004EB44029300EB5A43454DD104EB440293002B445B6813B19847012844D17A00D1198B0019462B449E680D446D88D9F8083093B916E0D9F8081004EB440293006B
:40030000CB5A9A4506D104EB4402930019448B6803B198470134A4B200E00024B9F80C309C42E8D306B1B047D9F8083093B916E0D9F8081004EB44029300CB5A9D4206D19D
:4003400004EB4402930019444B6803B198470134A4B200E00024B9F80C309C42E8D3A9F80E500020BDE8F0870134A4B2A642A6D80020BDE8F0876FF01300BDE8F0876FF0A8
:400380001600BDE8F0876FF01600BDE8F08700BF30B583B000238DF804308DF8053001A801F0E4F89DF80530012B3BD1204B1B88B3F5FA6F03D232331D4A138035E0B3F585
:4003C000FA6F32D31B4B9B6893F82020012A02D1586A01F041FF174B03221A7000225A6002225A709B6893F82020012A02D1586A02F0D8F80F4B9B685D699B6873B13DB9FF
:400400000CE0996855F8240001F0BEFD013400E00024084B9B681A699442F2D30022044B1A8002E00022024B1A8003B030BD00BF1483FF1FFC80FF1F08B5034B197803487A
:40044000FFF71EFF08BD00BFFC80FF1FEC80FF1F30B587B0334A03AB07CA03C31A706B4606AA12E9070003C31A702F4B1B6993F82020012A02D1586A01F0EEFE2A4C234661
:400480009DE8070003C31A700023E36002236372236993F82020012A02D1586A02F082F8214B1B695D699B6873B13DB90CE0996855F8240001F068FD013400E000241A4B58
:4004C0001B691A699442F2D39DF80D40174B9B789C4211D19DF81120144BDB789A420BD19DF81020114B1B799A4205D19DF814200E4B5B799A4212D00B4B5B7A022B03D1CC
:40050000094803695B689847084B9C709DF81120DA709DF810201A719DF814205A7107B030BD00BF1481FF1F2881FF1F1483FF1F38B51B4A93790133DBB293713B2B2ED9E7
:400540000022174B9A71174B9B6893F82020012A02D1586A01F080FE124B05221A7000225A6002225A709B6893F82020012A02D1586A02F017F80B4B9B685D699B6873B1E0
:400580003DB938BD996855F8240001F0FDFC013400E00024034B9B681A699442F2D338BD1483FF1FFC80FF1F38B5164B9B6893F82020012A02D1586A01F04EFE114B04226D
:4005C0001A7000225A6002225A709B6893F82020012A02D1586A01F0E5FF0A4B9B685D699B6873B13DB938BD996855F8240001F0CBFC013400E00024024B9B681A69944208
:40060000F2D338BDFC80FF1F00B583B000230193012001F039FD01A9032001F095FC019801F064FC019A0121014800F08BFFEFE74838000010B5074C22680221064800F06D
:4006400069FF23680133236013F5807F01D90022226010BD1C83FF1F5438000030B583B000238DF804308DF8053001A800F07EFF9DF80530012B2DD12F4B9B6893F8202035
:40068000012A02D1586A01F0E7FD2B4B02221A7000225A6002225A709B6893F82020012A02D1586A01F07EFF234B9B685D699B68002B3FD03DB93DE0996855F8240001F0D1
:4006C00063FC013400E000241B4B9B681A699442F2D32FE09DF80430012B2BD1164B9B6893F82020012A02D1586A01F0B5FD124B01221A7000225A6002225A709B6893F8E7
:400700002020012A02D1586A01F04CFF0A4B9B685D699B6873B13DB90CE0996855F8240001F032FC013400E00024034B9B681A699442F2D303B030BDFC80FF1F684620F025
:4007400007018D4619B572B6EFF311841E4B1B68DBB20F2B10D9103B23F0030202F1604202F564421168DB0003F01803E0229A400A4022FA03F306E00F2B03D1134B1B6891
:400780001B0E00E0002383F31188114A136801331360012B01D102F0DBF962B6FFF75EFF72B684F3118801F04DFD094A1368013B13601BB902F0D5F902F099F962B6BDE88D
:4007C00019408546704700BF04ED00E020ED00E06484FF1F30B587B0324802F001F8324A03AB07CA03C31A709DF80C30012B13D19DF811109DF8122091420DD19DF80D30EE
:400800009DF80E20934203D201338DF80D3012E000238DF80D300EE0022B0CD19DF811309DF81220934203D201338DF8113002E000238DF811306B4606AA12E9070003C351
:400840001A70194B1B6993F82020012A02D1586A01F002FD144C23469DE8070003C31A700023E36002236372236993F82020012A02D1586A01F096FE0B4B1B695D699B6847
:4008800073B13DB90CE0996855F8240001F07CFB013400E00024044B1B691A699442F2D307B030BD943900001481FF1F30B587B0284801F095FF284A03AB07CA03C31A70B8
:4008C0009DF80C30012B05D18DF8103000238DF8143007E0022B05D100238DF8103001238DF814306B4606AA12E9070003C31A70194B1B6993F82020012A02D1586A01F09E
:40090000ABFC154C23469DE8070003C31A700023E36002236372236993F82020012A02D1586A01F03FFE0C4B1B695D699B6873B13DB90CE0996855F8240001F025FB013463
:4009400000E00024044B1B691A699442F2D307B030BD00BFA43900001481FF1F30B587B0214801F03DFF214C03AB94E8070003C300238DF810308DF814306B4606AA12E96C
:40098000070003C31A70236993F82020012A02D1586A01F061FC154C23469DE8070003C31A700023E36002236372236993F82020012A02D1586A01F0F5FD0C4B1B695D69DA
:4009C0009B6873B13DB90CE0996855F8240001F0DBFA013400E00024044B1B691A699442F2D307B030BD00BFB83900001481FF1F30B587B02F4801F0F3FE2F4A03AB07CA18
:400A000003C31A709DF80C30022B0DD19DF812209DF811309A4203D901338DF8113012E000238DF811300EE0012B0CD19DF80E209DF80D309A4203D901338DF80D3002E044
:400A400000238DF80D306B4606AA12E9070003C31A70194B1B6993F82020012A02D1586A01F0FAFB144C23469DE8070003C31A700023E36002236372236993F82020012AFE
:400A800002D1586A01F08EFD0B4B1B695D699B6873B13DB90CE0996855F8240001F074FA013400E00024044B1B691A699442F2D307B030BDCC3900001481FF1FF0B587B049
:400AC00007460E46254C03AB94E8070003C31A708DF80C606B4606AA12E9070003C31A70236993F82020012A02D1586A01F0B4FB1A4C23469DE8070003C31A700023E360F7
:400B000002236372236993F82020012A02D1586A01F048FD114B1B695D699B6873B13DB90CE0996855F8240001F02EFA013400E000240A4B1B691A699442F2D3012E04D100
:400B400039460748FFF79CFB05E0022E03D139460448FFF795FB07B0F0BD00BF1481FF1FCC80FF1FDC80FF1F08B5064801F038FE01210520FFF7A2FF02210520FFF79EFF3B
:400B800008BD00BFE039000008B5044801F028FE01210846FFF792FF08BD00BFF839000008B5044801F01CFE01210420FFF786FF08BD00BF0C3A000008B5044801F010FE25
:400BC00001210320FFF77AFF08BD00BF243A000008B5044801F004FE01210220FFF76EFF08BD00BF3C3A000008B5064801F0F8FD01210846FFF762FF02210120FFF75EFF73
:400C000008BD00BF503A000008B5044801F0E8FD02210420FFF752FF08BD00BF683A000008B5044801F0DCFD02210320FFF746FF08BD00BF803A000008B5044801F0D0FDBA
:400C400002210846FFF73AFF08BD00BF943A000008B5044801F0C4FD02210120FFF72EFF08BD00BFA83A000038B5134B988908B319461C89631C9BB2104AA2FB035252095C
:400C8000642505FB12330B810138888101EB44018B7B13B1012B04D006E0002001F086FE02E0012001F082FE034B03EB4404E07B01F030FE38BD00BF2083FF1F1F85EB515B
:400CC00030B5B7B01D4B9B89632B1AD936AD032305F8D83D1A4B3C221A490DF1010002F033F9194C0FCCCDF83E00CDF84210CDF84620CDF84A30284600F0F6FB6FF00700C4
:400D000019E00E4D6C89621C92B205EB4404A073E1730E49A1FB02014909642000FB11226A8101339BB2AB81012B03D1FFF79CFF002000E0002037B030BD00BF2083FF1F72
:400D40001440000018400000204000001F85EB512DE9F04180460E4617461D462A210020FFF7AEFF00210120FFF7AAFF194C94F8D6104144C9B20120FFF7A2FF00210120A6
:400D8000FFF79EFF94F8D6103944C9B20120FFF797FF2B210020FFF793FF00210120FFF78FFF94F8D7103144C9B20120FFF788FF00210120FFF784FF94F8D7102944C9B2B8
:400DC0000120FFF77DFF2C210020FFF779FFBDE8F08100BF2083FF1F08B5642800D9642001F016FE08BD00BF10B5044636210020FFF766FF04F003002A4B83F8D8000328F5
:400E00004ED8DFE800F00215283BC2210120FFF757FF244BA022A3F8DA208022DA8093F8DC2083F8D62093F8DD2083F8D72010BDA2210120FFF744FF1A4BA022DA8080224A
:400E4000A3F8DA2093F8DC2083F8D72093F8DD2083F8D62010BD08210120FFF731FF114BA022A3F8DA208022DA8093F8DC2083F8D62093F8DD2083F8D72010BD622101209C
:400E8000FFF71EFF074BA022DA808022A3F8DA2093F8DC2083F8D72093F8DD2083F8D62010BD00BF2083FF1F024BA3F8DE00A3F8E01070472083FF1F024BA3F8E200A3F80D
:400EC000E41070472083FF1F08B90120FFE7014B187170472083FF1F2DE9F0411F46BDF818501F4BB3F90630834236DD90461C4AB2F8DA20914230DA00EB0804013C9C42B5
:400F000002DB1B1A0FFA83F87B18013B9A4201DC571A3FB2C0B2C9B2CB19013B00EB0802013ADBB2D2B2FFF713FF2E0AEDB2012001F03CFD0FE031460220FFF7C1FE29460D
:400F40000220FFF7BDFE013C24B200E04446002CF1DC013F3FB2002FF8DCBDE8F08100BF2083FF1F00B583B0064AB2F9DA30B2F90620009000210846FFF7AEFF03B05DF8F6
:400F800004FB00BF2083FF1FF8B5364B8022DA80A022A3F8DA20002483F8D840A3F8DE40A3F8E04001251D714FF6FF72A3F8E220A3F8E4405D711C6083F8DD4083F8DC40C7
:400FC00083F8D64083F8D7401C815C819C8101F0DFFC284601F0F6FC642001F03DFC204601F0F0FC642001F037FC284601F0EAFC142001F031FC29462046FFF761FE32206E
:4010000001F02AFC11212046FFF75AFE782001F023FC0F22144D14E02C4614F8021B0020FFF74EFE6A78254606E06E1C29780120FFF746FE22463546531EDCB2002AF4D1FE
:401040003A46531EDFB2002AE6D10220FFF7CCFE0020FFF787FF01F021FD642001F0D8FCF8BD00BF2083FF1FBD3A0000002821DB114BB3F9063098421CDA00291ADB0E4B62
:40108000B3F8DA30994215DA10B51446C0B2C9B24B1C421CDBB2D2B2FFF75AFE012001F085FC210A0220FFF70BFEE1B20220FFF707FE10BD704700BF2083FF1FF8B51E46DD
:4010C000164BB3F90630834226DD1546134BB3F8DA30994220DA0A44013A934201DC5D1A2DB2C0B2C9B24B19013BDBB20246FFF72FFE370AF6B2012001F058FC08E03946D6
:401100000220FFF7DDFD31460220FFF7D9FD25466A1E14B2002DF2D1F8BD00BF2083FF1F2DE9F04F8BB00290039115460493BDF850709DF854A07F4B1A68002A40F090801E
:40114000B3F906300146834240F3F180794BB3F8DA300398984280F2EA800AEB4A0253000B44012B00F1E38000EBCA03012B00F1DE804FF00008894683460595049E4EE034
:40118000059B03EB830343446B4A134493F8585000243EE015F0010F1BD0BAF1010F09D104EB0B0108EB0900324609B200B2FFF75DFF2BE01FFA8AF00FFA8AF204FB00B17D
:4011C00008FB00900096134609B200B2FFF784FE1CE0BE421AD0BAF1010F09D104EB0B0108EB09003A4609B200B2FFF73FFF0DE01FFA8AF00FFA8AF204FB00B108FB0090AD
:401200000097134609B200B2FFF766FE013464B26D08072CBEDD08F101084FFA88F8B8F1040FADDD049BBB4200F08180BAF1010F08D1029805303B460822039900B2FFF779
:401240003DFF74E01FFA8AF303EB8300029A10440097DB005246039900B2FFF73DFE66E0137AEB1ADBB2506800EBC301D2F800B030F8337091F80280CB78079391F90530A6
:40128000089391F906200992BAF1010F04D91BB2059313B2069302E000230693059300231C46994640E05E1CF6B213F0070F03D17B1C1BF807409FB214F0800F27D0BAF1AD
:4012C000010F0DD1099B039A99184944089B029A98182844049A09B200B2FFF7C7FE16E0059B58191FFA8AF3069A02EB09010FFA8AFE039A01FB0321029A00FB0320049B85
:4013000000937246734609B200B2FFF7E5FD6400E4B20135EDB2334600E000254545C2D309F101095FFA89F9079A9145F5D30BB0BDE8F08F2083FF1FBC3A000070B582B0ED
:401340004E4B1B68002B43D10A280BD14B4B0022A3F8DE201979B3F8E02002EBC102A3F8E02088E00D2800F08680444B5B79ABB1424A117901EB41046300B2F8DE40234400
:40138000B2F90620934209DD3C4B0022A3F8DE20B3F8E02002EBC101A3F8E010374CB4F8E230B4F9E010B4F9DE5022790192B4F8E420009202462846FFF7B2FE237903EB6B
:4013C00043035A00B4F8DE301344A4F8DE3052E00A280CD1294A0021A2F8DE10997A1079B2F8E03000FB0133A2F8E03043E00D2841D01A7A90423ED3597A88423BD8821ADA
:401400005C6804EBC204A278E1785AB351B394F905501A494979A9B118490E792A44B1F8DE5002FB0652B1F906108A420ADD134A0021A2F8DE109B7AB2F8E01006FB03168A
:40144000A2F8E0600D4AB2F8E230B2F9E010B2F9DE5016790196B2F8E420009202462846FFF75EFE2179054B1879B3F8DE2000FB0122A3F8DE2002B070BD00BF2083FF1F63
:4014800010B5044602E00134FFF758FF20780028F9D110BD08B503281BD8DFE800F002080E1401F035F9012815D0002008BD01F037F9012811D0002008BD01F039F9012836
:4014C0000DD0002008BD01F03BF9012809D0002008BD002008BD012008BD012008BD012008BD012008BD00BF10B50446013001F077F9064801F074F904F13E0001F070F908
:40150000034801F06DF9002010BD00BF4040000044380000F8B506460F46154600240DE006EBC4039A88B5FBF2F302FB13531BB956F83430002098470134A4B2BC42EFD305
:40154000F8BD00BFF8B505460E461746002409E005EBC4035868384202D055F8343098470134A4B2B442F3D3F8BD00BF10B504460020FFF78FFF20700120FFF78BFF60707F
:40158000002010BD30B585B004460379012B0DD14FF6FF75009523232D2237210820FFF79BFC29460020FFF787FC0CE00025009523232D2237210820FFF78EFC29464FF66D
:4015C000FF70FFF779FC3C210D20FFF76DFC6378092B02D82448FFF753FF0A2203A9607801F09DFC03A8FFF74BFF00214FF6FF70FFF762FC3C213820FFF756FC1B48FFF7E7
:401600003FFF237A012B0DD14FF6FF75009523232D2237214B20FFF75FFC29460020FFF74BFC0CE00025009523232D2237214B20FFF752FC29464FF6FF70FFF73DFC3C2111
:401640005020FFF731FC6379092B02D80648FFF717FF0A2202A9607901F061FC02A8FFF70FFF002005B030BD4440000048400000FEE700BFF0B40022174611E050F8276092
:40168000F3B226F0FF0608E001EB420511F812406D78A5550132013BDBB2002BF4D101372A2FEBD9F0BC704708B50A46002101F043FC08BD38B500242D4B1C80582202337A
:4016C0001A70022202331A8018232A490B700E200231088002310B70192502310D8002310B7041F2BF200231088002310B70224B1A7008224FF040231A70032103F50073AA
:4017000019701E4B1B78DBB21D490B701D4B1A8041F25122023B1A800CE01B4B1B7803F0010343EA440404F003044FF4F07001F097FA013D0DB1032CEFD115B90320FFF7F4
:4017400097FF124B4FF480721A8007221A7000220F490A704820023108701A700222033B1A700C4A137843F01F03137038BD00BF804000408640004000430040080100492F
:40178000A146004022420040254200400440004006400040A2430040F8B5164B1B78DBB2154E3478E4B2154F3D78EDB203F00701134A11701B090132137044F0030333706D
:4017C00045F003033B7003220E4B1A7040230E4A13700232137030220C4B1A70202203331A700A2001F04EF83D7034704422084B1A70F8BDCF010049F8460040F946004011
:401800006E5800400D51004001590040205B00407658004008B501F084FB08BD38B572B600240CE0394D630019194A0011462A44084691882858FFF737FF0134E4B2072C4F
:40184000F0D900240BE03149A3001819420088180622416B006BFFF7DDFF0134E4B2002CF1D02B494FF09040FFF704FF04212948FFF71AFF042228492848FFF7CBFF284A3D
:40188000137843F0020313701032137843F002031370244C237843F040032370A2F58632513A137843F01003137008221E491F48FFF7B0FF0A221E491E48FFF7ABFF0822B8
:4018C0001D491E48FFF7A6FF08221D491D48FFF7A1FF08221C491D48FFF79CFF1C4A137843F0080313701B4D61232B70FFF7E2FE81232B700122184B1A70FFF74DFF0E22A1
:4019000021461648FFF786FF38BD00BFF0400000AC000048007600402C0D00480876004003500140A0430040000D004802510040080D0048C0510040140D00481251004041
:401940001C0D004822510040240D004832510040224300400048004004000840B043004008B501F099FA03680C2B00D1FEE7FEE708B5094B1A681044084BC31A802B02DC3D
:40198000054B186005E001F087FA0C2303604FF0FF32104608BD00BF3C81FF1FE889FF1F08B5104E104D16E029686B68AC68002204E051F8040B43F8040B0432A242F8D151
:4019C000E868002203E0002143F8041B04328242F9D11035013E002EE6D101F063FAFEF7A3FBFEE7010000003444000008B5114A114B1A60114A136843F4007313600023A7
:401A00000AE0032B03D80E4A52F8231000E00D490D4A42F8231001332F2BF2D90B4B1A780B4B1A70084A0B4B1A60FFF7F7FE00F0F7FE08BD0004FA050CED00E014ED00E04F
:401A400000000000611900000080FF1FBC760040C080FF1F08ED00E038B5EFF3108572B603284ED82D4B53F82030002B4BD02B4A013B42F820302A4B53F82030032B07D122
:401A80000222274B43F820200022264B43F8202000F09CFC244B1B68002B36D1234B1C6800F072FCB0F1FF3F31D0214B53F82020204B1B689A422CD9B4F1FF3F03D002218C
:401AC000174A42F824101C4A52F820201343194A13600022124B43F8202000F011FC174B53F820304BB10024144B43F8204040F0004001F03FF820460CE001F03BF80020BF
:401B000008E0032006E0042004E0002002E0002000E0002085F3108838BD00BF9881FF1F3C82FF1F2C84FF1F6484FF1F2882FF1FFC4200004484FF1FE04200000C84FF1F23
:401B4000F8B5EFF3108472B6022825D800EB4005AB00184DEB5803EB4306B500164E75598D421BD34AB103EB43039E00124B1E44B3689A4214D3954214D3A9B103010F4DB3
:401B8000EB589BB90301EE180127EF507260013900F086F800200AE0032008E0082006E0082004E0082002E0082000E0072084F31088F8BD74420000B04200008C84FF1FA1
:401BC00018B108B5C368984708BD704708B508B1406800E00020032816D80C4B53F8203093B10A4A013B42F82030094B53F82030032B07D10222064B43F820200022054BFB
:401C000043F8202000F0E2FB08BD00BF9881FF1F3C82FF1F2C84FF1F18B1034640689B6801E00023184603281DD80F4A52F82020CAB10E4A52F82010032914D010B50C4C5B
:401C400054F820201A4344F820200A4A52F82020134207D0012905D10222044B43F8202000F0B4FB10BD7047C04200003C82FF1F2C84FF1F1C84FF1F80B108B50378012BE5
:401C800006D013B1032B06D008BDFFF79FFF08BDFFF7C2FF08BDFFF793FF08BD704700BF30B400EB40029300214AD258214B03EBC2035C68B4F1FF3F04D11E4B03EBC2023A
:401CC00050602DE01C4B03EB04139B6899420AD2184D05EBC2025060174A02EB04125B1A93601DE01C46144B03EB04139A68891ADB68B3F1FF3F05D00F4A02EB03129268B5
:401D00009142EFD2B3F1FF3F05D00B4A02EB031295686D1A9560084A02EB0414E0601C46054B03EB00108160C46030BC704700BF744200004C81FF1F8C84FF1F38B5394A9B
:401D400002EBC0035C6852F83030013342F8303000EB40018A0034498A58934203D90022304B43F83020B4F1FF3F59D02F4B03EB04139B68002B4ED1214600E019462B4B95
:401D800003EB0113DB68B3F1FF3F05D0274A02EB03129268002AF1D0244A02EB01114FF0FF32CA601F4A02EBC0004360B3F1FF3F07D01E4A02EB03139A68013A9A6000E0D4
:401DC0002C4604EB44029300194A13441B7A7BB904EB44029300164A13445A68154B53F8223003EB83039A0013481044FFF744FF0E4B03EB0413DD68596821B1013920461C
:401E0000FFF74EFF03E024010022084B1A51B5F1FF3FD5D138BD054A02EB0414013BA36038BD00BF4C81FF1FB04200008C84FF1F74420000A44200003842000038B5EFF3C1
:401E4000108572B6002838D1FFF778FF204B1B68002B34D11F4B1C6800F096FAB0F1FF3F2FD01D4B53F820201C4B1B689A422AD9B4F1FF3F03D00221194A42F82410194AD4
:401E800052F820201343154A13600022144B43F8202000F035FA144B53F820304BB10024114B43F8204040F0004000F063FE20460AE000F05FFE002006E0032004E00020B9
:401EC00002E0002000E0002085F3108838BD00BF6484FF1F2882FF1FFC4200004484FF1F3C82FF1FE04200000C84FF1FEFF3108372B6114A1168114A126882B9B1F1FF3F1D
:401F00000FD00F4A52F821206AB110B40D4C54F8212022EA000044F82100002007E0022002E0022000E0012083F31088704783F3108810BC704700BF2882FF1F6484FF1F9F
:401F4000C04200002C84FF1F03280FD80B4B53F820306BB10A4B53F82030032B0AD059B1084B53F820300B60002070470320704701207047072070470E207047C0420000C9
:401F80003C82FF1F2C84FF1F38B5EFF3108472B6032853D8324B53F82030002B50D0314B53F82030032B4DD02F4D55F820200A4345F820202D4A52F82020114244D0012B6A
:401FC00044D10222274B43F8202000F0FFF9284B1B68002B3CD1274B1D6800F0D5F9B0F1FF3F37D0244B53F82020244B1B689A4232D9B5F1FF3F03D002211A4A42F825108A
:402000001F4A52F8202013431C4A13600022154B43F8202000F074F91A4B53F820304BB10025184B43F8205040F0004000F0A2FD284612E000F09EFD00200EE003200CE0EE
:4020400001200AE0072008E0002006E0002004E0002002E0002000E0002084F3108838BDC04200003C82FF1F2C84FF1F1C84FF1F6484FF1F2882FF1FFC4200004484FF1FBA
:40208000E04200000C84FF1F38B5EFF3108472B63A4B1D683A4B1B68002B63D1B5F1FF3F62D0384B53F82530B3F1FF3F5ED1364B53F82530002B5BD0344B53F8253003422F
:4020C00058D1334B43F825000122324B43F82520314B53F8250031490B6823EA00030B602F4B43F825202F4B53F82520234B1A6000F04AF9B0F1FF3F06D02B4B53F8202090
:40210000264B1B689A420DD81C4B1868B0F1FF3F03D000221F4B43F8202040F0004000F029FD1AE000211B4A42F820101A4A52F820201343194A136000F0E2F8184B53F848
:40214000203043B10022164B43F8202040F0004000F010FD01E000F00DFD00200C4B43F8250008E0022006E0022004E0062002E0012000E0002084F3108838BD2882FF1F13
:402180006484FF1F5881FF1FC04200002C84FF1F1C84FF1F3C82FF1FE04200004484FF1F0C84FF1F2C82FF1FFC42000008B500F0A7F8084B53F8203043B10022054B43F81D
:4021C000202040F00040044B186008BD024B186008BD00BF0C84FF1F6884FF1F10B500F0D3F8124B1B68B0F1FF3F1AD0104A52F82010104A1268914213D9B3F1FF3F03D05D
:4022000002240D4941F8234000210B4B43F820100A4B53F820301A43064B1A60FFF7C6FF10BD43F00043064A136010BD2882FF1FFC4200004484FF1F3C82FF1FE042000014
:402240006884FF1F034B1B6813B10022014B1A60704700BF5884FF1F204B1A68204B1968EFF3108372B648BB30B41E4C54F8204044BB51B9B2F1FF3F26D01B4C54F82250EF
:402280001A4C54F82040A54220D809BB184951F82250184C44F8205041F822000121114A42F8201014490C68144A42F820400F4A52F8202022430A6000200AE0032083F3DD
:4022C00010887047012004E0012002E0012000E0012083F3108830BC704700BF2882FF1F6484FF1F0884FF1FFC420000BC4200005881FF1F5481FF1F4484FF1FBC84FF1F13
:40230000F0B4184B19880B0A174AD356B3F1FF3F01D1535601E008335BB2144D55F82320134850F82200134E56F8224045F82340114D2F6846F822702A60B4F1FF3F09D15D
:402340000E4A42F82340012202FA03F321EA0301044B19800A4B19680A4A42F820101860F0BC70474084FF1F2C410000E881FF1F6C84FF1F7881FF1F3C84FF1FA881FF1FCD
:402380002882FF1F2C82FF1F0C4B1A88130A0C49CB56B3F1FF3F01D18B5601E008335BB2B3F1FF3F06D0074A52F82320064B53F8220070474FF0FF30704700BF4084FF1F6E
:4023C0002C410000E881FF1F6C84FF1F30B4144B53F82020134C2368134951F823502560124C44F823004FF0FF3441F82340104951F82210A1420AD10E4951F820400E48D3
:402400000188214301800D4941F8223002E0064840F82130064941F8223030BC704700BF8881FF1F3C84FF1F7881FF1F6C84FF1FA881FF1FFC4200004084FF1FE881FF1F40
:4024400010B150F8210070474FF0FF30704700BF0122014B1A60FEE76084FF1F70B50546124B53F8306000241CE0104B03EBC50321465868FFF7E4FF0D4A52F82030013BC1
:4024800042F820300B4B53F82030032B07D10222084B43F820200022074B43F82020FFF795FF0134B442E0D370BD00BF2C4200009881FF1F3C82FF1F2C84FF1F18B908B589
:4024C000FFF7CCFF08BD7047194B1A4ADA621A4A9A631A4ADA63EFF3108272B6184B1B6813BB10B5044600F0EFF8164B1C600122134B1A602046FFF7E1FFFFF745FFB0F174
:40250000FF3F0ED0104B53F82030104A11680B43136000220E4B43F82020FFF7F1FE00F029FB62B6FFF794FF82F31088072070470080FF1F352B0000F92A000091000000C8
:402540006084FF1FC084FF1FE04200004484FF1F3C82FF1F08B5EFF3108272B60D4B19680D4B1B6863B90D4B53F82130B3F1FF3F08D14FF0FF300A4B43F82100002002E01A
:40258000022000E0062010B9084600F04CFB82F3108808BD2882FF1F6484FF1F5881FF1F6881FF1F70B53C4B1A683C4B1B68EFF3108572B600285BD1394951F820100029B8
:4025C00058D0384951F82210884255D153B9B2F1FF3F53D0344C54F82260344C54F82040A6424DD8002B4DD1314C54F821402D4941F8224000212A4A42F820102D4A52F8EC
:4026000020102D4A1160002B3ED1234B1C68FFF7BBFEB0F1FF3F39D0234B53F82020264B1B689A4234D9B4F1FF3F03D00221234A42F82410224A52F8202013431E4A13600E
:4026400000221E4B43F82020FFF75AFE1D4B53F820304BB100241B4B43F8204040F0004000F088FA204614E000F084FA002010E003200EE005200CE005200AE0012008E0EE
:40268000012006E0012004E0002002E0002000E0002085F3108870BD2882FF1F6484FF1F0884FF1F5881FF1FFC420000BC4200005481FF1FBC84FF1F4484FF1F3C82FF1FF1
:4026C000E04200000C84FF1F38B50D4B1D68EFF3108472B600F0FEF90A4A136843F07F431360094B6B640221012000F0D5F8074A136843F00203136084F3108838BD00BF26
:4027000008ED00E020ED00E03D07000000E100E0024B1878C0F3C000704700BF01510040024B1878C0F30010704700BF01510040024B1878C0F34010704700BF01510040EA
:40274000024B1878C0F38000704700BF315100407222074B1A702022023B1A700622643B1A70472210331A70002253331A7070478A65004010B500F07BFA04460A4A1378A6
:4027800043F020031370023A137843F010031370013A137843F01003137000F033F8204600F06AFA10BD00BF9A65004008B5054B1B7823B9FFF7CCFF0122024B1A70FFF754
:4027C000D9FF08BD4C84FF1F034B1B7813F0040FFAD1024B18707047676500404765004038B5074B1B782BB938BDFFF7EDFF0134A4B201E005460024285D0028F5D138BD38
:402800004C84FF1F054A137843F0080313701032137843F008031370704700BFA24300400B4A7F2313708021517007E0DA0002F1804202F5F042013BDBB21370002BF5D12E
:40284000DB0003F1804303F5F04300221A7070477482FF1F01BE704710B5044605E0084B186800F0FDF9A4F50044B4F5004FF6D8034B586800FB04F000F0F2F910BD00BFFA
:402880007C82FF1F08B5034B1B7A00FB03F000F0E7F908BD7C82FF1F38B504460D46072902D90020FFF7D6FF1F2C02D90020FFF7D1FF04F01F0000F1604000F564406D0186
:4028C000EDB2057038BD00BF08B500F0D1F90A4A137843F020031370033A137843F010031370013A137843F01003137000F0C4F900F0E2F808BD00BF9B640040014B1878AB
:40290000704700BF68640040014B1878704700BF67640040034B1B7813F0040FFAD0024B18707047686400404B64004008B501E00A4B1B780A4B1B7813F0200FF8D100F017
:4029400097F9084B1A7842F001021A701A7802F0FE021A7000F090F908BD00BF5B640040676400409B64004008B50F22064B1A70FFF7DCFFFFF7C2FFFFF7C6FF0023034A53
:402980001370013A137008BD8B6400408864004008B5054B1B7823B9FFF7E6FF0122024B1A70FFF791FF08BD4E84FF1F044A137803F0F703C00000F008001843107070471A
:4029C000C0510040044A137803F0EF03000100F0100018431070704730510040084A137843F0010313701032137843F00103137002F64D32137843F001031370704700BF24
:402A0000A3430040014B1880704700BF044F0040014B1880704700BF064F0040014B1870704700BF034F004008B5194A137843F0020313700232137803F08F0343F01003C8
:402A40001370144B1A7802F0CF021A701A7842F030021A701A7802F0F0021A701A7842F00F021A706420FFF7CDFF0020FFF7D0FF0020FFF7D3FF084A137843F0010313700C
:402A800002F65E32137843F00103137008BD00BF004F00400B4F0040A343004008B5054B1B7823B9FFF7C0FF0122024B1A70FFF795FF08BD4F84FF1F054A137843F00103FA
:402AC00013701032137843F001031370704700BFA243004018484FF47F0102680A43026016486FF07F4102680A400260704714484FF080510160704772B611484FF0006106
:402B00000160FFF76BFB0F48006800F005F958B10C4800684FF080730B4A0C490FB40FB46FF00600004700BF6FF0060062B6004762B600DF08B0704720ED00E01CED00E099
:402B400004ED00E06884FF1F752B0000312B0000EFF30880054908600548006880F3088870470248006880F3088870478C82FF1F6882FF1F411C8900154A11440968154AE5
:402B8000136899421AD0F0B444464D4656465F46F0B400B5104C9B002344EFF308851D60116089002144096881F3088802BC8E46F0BCA046A946B246BB46F0BC002806DB9B
:402BC00000B500F09DF802BC8E46FFF7D3BF70472C4300004884FF1F6C82FF1FF0B444464D4656465F46F0B400B5EFF3038308B48000174901440968164A0244EFF308833D
:402C0000136088471448804704BC4FF08070024382F3038801BC8646F0BCA046A946B246BB46F0BC704780000A4901440A6882F3088804BC4FF08070024382F3038808BC0E
:402C40009E46F0BCA046A946B246BB46F0BC70470C4300007C84FF1F812C0000000000000230800803D000BF01380046FCD17047EFF3108072B6704780F31088704700BF58
:402C800010B572B6034B1C68204600F00DF82046FFF7C9FF2882FF1F08B5024B1868FFF79DFF08BD2882FF1F10B4104B53F820304FF0FF310BE00E4A52F823200B4941F8DF
:402CC000202000240B4941F8234019461346B3F1FF3FF0D1B1F1FF3F04D0074B53F82120064B1A60084610BC704700BF5881FF1F5481FF1F0884FF1FBC84FF1F4484FF1F60
:402D000008B562B6FFF7C8FF72B600F041F8014B186808BD6884FF1F00280BDA20F000400130054B53F82000044B1B68181A18BF01207047012070472C4300004884FF1FE8
:402D4000054B53F82020054B53F820309A4201D101207047002070479881FF1FD042000008B5FFF7CDFA084B53F8203043B10022054B43F8202040F00040044B186008BDA2
:402D8000024B186008BD00BF0C84FF1F6884FF1F38B5364B1C680022354B1A60354A52F82430013342F82430334B53F824502046FFF7C6FF012801D0A54204D103222F4B72
:402DC00043F8242003E002222C4B43F824202C4B53F824102B4A136823EA010313602A4B53F82440214B1C60B5F1FF3F0FD0234B53F82530032B07D10222204B43F82520FB
:402E00000022224B43F825202846FFF7DFFAFFF7BBFAB0F1FF3F0BD1B4F1FF3F03D00022164B43F8242044F00044194B1C6038BD184B53F82020134B1B689A4208D800222E
:402E40000E4B43F8242044F00044114B1C6038BD00210A4A42F82010094A52F820201343084A1360FFF77CFF38BD00BF2882FF1F5884FF1F9881FF1F6881FF1F3C82FF1F5D
:402E8000E04200004484FF1F2C82FF1F2C84FF1F6884FF1FFC420000014B1868704700BFF082FF1F0E4B70B51E460E4C0025E41AA410A54204D056F8253098470135F8E7F1
:402EC00001F0A6FA084B094C1E46E41AA4100025A54204D056F8253098470135F8E770BD1C4400001C4400001C44000024440000931E222B10B50C4602D90020087010BD02
:402F00000A2A06D1002804DA2D230B704042012100E00021214400F03BF8204610BDFFF7E7BF10B5431E0A44914204D011F8014B03F8014FF8E710BD03460244934202D01C
:402F400003F8011BFAE770470EB400B54FF402719CB0ADF814106FF00041049107914FF6FF711DAB02900690084853F8042BADF81610006802A9019300F0A0F8029B00226B
:402F80001A701CB05DF804EB03B07047F082FF1FF0B58BB003460F466D461A4C04F1200E2E4620686168083403C674453546F7D1217920683171911E222930604FF0000070
:402FC00001D938701CE07D1EB3FBF2F402FB14330AAE334413F8283C411C05F8013F23460CB10846F0E77C543A18C11A8B4206DAF95C1478FC5402F801190133F5E73846E0
:403000000BB0F0BDB64300002DE9F0478E6882469E420C46914698463ED88A8912F4906F3AD02568096902236F1A656905EB450595FBF3F57B1C43449D4238BF1D46530529
:403040000FD5294600F040FB064698B13A462169FFF767FFA38923F4906343F08003A38113E02A4600F08EFB064670B92169504600F0DEFA0C23CAF80030A3894FF0FF30D3
:4030800043F04003A381BDE8F08726613E44266046466561ED1BA560464528BF464649463246206800F0A8FAA36800209B1BA36023681E442660BDE8F08700002DE9F04F85
:4030C0009DB003938B8980461C060D4616460DD50B695BB9402100F0F7FA2860286118B90C23C8F80030CDE040236B610023099320238DF82930DFF89CB130238DF82A3083
:4031000037463C4614F8013B1BB9B7EB060910D003E0252BF9D02746F3E74B46324629464046FFF771FF013000F0A780099B4B4409933B78002B00F0A08000234FF0FF32A4
:4031400004930793059206938DF853301A930126052221784E4800F041FA671C049B38B14B4A3C46801A06FA00F018430490EFE7D90644BF20228DF853201A0744BF2B2293
:403180008DF8532022782A2A03D0079A00210A200BE0039A111D12680391002A10DA524243F00200079204900BE027463B780134303B092B03D800FB02320121F5E701B103
:4031C00007923B782E2B1ED17B782A2B0AD1039B02371A1D1B680392002BB8BF4FF0FF33059310E0002319460593781C0A2407463A780130303A092A03D804FB012101238E
:40320000F5E703B1059103223978224800F0E6F940B14023CBEB000003FA00F0049B013718430490397806221B487E1C8DF8281000F0D4F988B1194B33B9039B073323F0D8
:4032400007030833039314E003AB00932A46144B04A94046AFF3008007E003AB00932A460F4B04A9404600F093F8B0F1FF3F824603D0099B5344099342E7AB895B0601D496
:40328000099801E04FF0FF301DB0BDE8F08F00BFDB430000E1430000E543000000000000093000002DE9F04791461F460A698B6806469342B8BF1346C9F8003091F843200E
:4032C0000C46DDF8208012B10133C9F800302368990642BFD9F800300233C9F80030256815F0060510D104F1190A07E00123524639463046C04701301AD00135E368D9F82B
:4033000000209B1A9D42F1DB94F843302268003318BF012392060FD5E118302081F843005A1C94F845102244023382F8431003E04FF0FF30BDE8F08704F14302394630467A
:40334000C0470130F4D02268D9F80050E36802F00602042A08BF5D1B2269A3680CBF25EAE57500259342C4BF9B1AED184FF000091A344D4509D00123224639463046C0476A
:403380000130D5D009F10109F3E70020BDE8F0872DE9F04317460A7E85B06E2A984606460C460C9B01F1430E00F0AE8011D8632A22D009D8002A00F0BB80582A40F0CA8004
:4033C00081F84520834955E0642A1ED0692A1CD0C0E0732A00F0B08009D86F2A2ED0702A40F0B8800A6842F020020A603EE0752A24D0782A3AD0ADE01A6801F14205111D19
:403400001960136884F84230A8E021681A6811F0800F02D0111D196008E011F0400F02F10401196002D0B2F9003000E01368002B3CDA2D225B4284F8432037E021681A682F
:4034400011F0800F02D0111D196007E011F0400F02F10401196001D0138800E01368227E5C496F2A14BF0A2208221BE078225A4984F845202268186812F0800F00F104051F
:403480001D6003D1550601D5038800E00368D00744BF42F0200222601BB9226822F0200222601022002084F8430001E049490A226568002DA56008DB206820F00400206042
:4034C0002BB9002D7DD175460CE0002B79D07546B3FBF2F002FB1033CB5C05F8013D03460028F5D1082A0BD12368DA0708D5236962689A42DEBF302305F8013C05F1FF3551
:40350000C5EB0E0323612EE008681A6810F0800F496903D0101D1860136808E010F0400F02F104001860136801D0198000E0196000232361754616E01A68111D1960156830
:4035400000216268284600F049F808B1401B6060636804E004F1420584F8422001232361002384F84330CDF800803B4603AA21463046FFF797FE013002D14FF0FF3026E017
:4035800023692A4639463046C0470130F5D023689B0710D5002504F1190907E001234A4639463046C0470130E7D00135E368039A9B1A9D42F2DBE068039B9842B8BF18463C
:4035C00005E00B7804F1420584F842308AE705B0BDE8F083EC430000FD43000010B5C9B202449042034605D01C7801308C42F8D1184610BD002010BD884210B501EB020322
:4036000001D8421E0BE09842FBD28118D21AD34204D013F8014D01F8014DF8E710BD994204D011F8014B02F8014FF8E710BD000038B50546002944D051F8043C0C1F002BB7
:40364000B8BFE41800F0D4F81E4A1368114613B96360146030E0A3420DD92268A018834201BF18685B681218226063600C6023E0A24203D813465A68002AF9D1186819189C
:40368000A1420BD12168014458188242196013D110685268014419605A600DE002D90C232B6009E021686018824201BF106852680918216062605C602846BDE8384000F085
:4036C00098B838BD5484FF1F70B5CD1C25F0030508350C2D38BF0C25002D064601DBA94202D90C23336046E000F082F8234B1C681A462146A1B10B685B1B0ED40B2B03D971
:403700000B60CC18CD501EE08C420BBF63684B681360636018BF0C4615E00C464968E9E7174C23681BB9304600F052F820602946304600F04DF8431C18D0C41C24F0030494
:40374000A0420DD12560304600F053F804F10B00231D20F00700C31A0ED05A42E25070BD211A304600F034F80130EBD10C233360304600F03EF8002070BD00BF5484FF1F2C
:403780005084FF1FF8B5074615460E4621B91146BDE8F840FFF798BF1AB9FFF749FF2846F8BD00F027F885420ED929463846FFF78BFF044650B131462A46FFF7B2FB314669
:4037C0003846FFF735FF01E03046F8BD2046F8BD38B5064C0023054608462360FEF7C8F8431C02D1236803B12B6038BDE489FF1F7047704751F8040C0028BEBF091851F875
:40380000043CC01804387047000000000000170100003B010000000031313132323936202D20454141204C414220320A0000000031313132323936202D20454141204C41FD
:40384000422032200A000000390400000100000001000000910300003200000051040000FA0000000200000005000000D43800000200000003000000B03800000300000033
:40388000040000008C380000030000000200030000000000F10900000400040000000000F109000001000500000000005D0900000200030000000000F109000003000400CA
:4038C000000000000000000001000500000000005D0900000100030000000000AD0800000500050000000000D5070000020000000000000000000000020000007C39000004
:4039000002000000000000004C39000004000000010000001C390000040000000100020000000000510C00000200010000000000390C00000300010000000000210C0000C9
:403940000400010000000000090C00000100010000000000E90B00000200000000000000D10B00000300000000000000B90B00000400000000000000A10B000001000000E1
:4039800000000000890B00000500020000000000690B00005570646174652054696D65200A000000536574204564697420466F6E7473200A000000005365742044697370BA
:4039C0006C617920466F6E7473200A00496E6372656D656E7420576964676574200A0000496E6372656D656E742031204D696E757465200A000000004469737061746368F8
:403A0000204B4C20486F757273200A004469737061746368203235304D5320486F757273200A00004469737061746368204B524C5020486F757273200A000000446973701E
:403A400061746368204B5220486F757273200A004469737061746368204B4C20486F757273204D696E200A004469737061746368203235304D53204D696E200A0000000013
:403A80004469737061746368204B524C50204D696E200A004469737061746368204B52204D696E200A0000004469737061746368204B4C204D696E200A0000000FB1030597
:403AC0003C3CB203053C3CB306053C3C053C3CB40103C003280804C101C0C2020D00C3028D2AC4028DEEC5011A3601C0E0100422070A2E30252A28262E3A00010313E10F42
:403B000016060D2D26232727252D3B000104133A0105290000000000003E5B4F5B3E3E6B4F6B3E1C3E7C3E1C183C7E3C181C577D571C1C5E7F5E1C00183C1800FFE7C3E740
:403B4000FF0018241800FFE7DBE7FF30483A060E2629792926407F050507407F05253F5A3CE73C5A7F3E1C1C08081C1C3E7F14227F22145F5F005F5F06097F017F00668905
:403B8000956A606060606094A2FFA29408047E040810207E201008082A1C08081C2A08081E101010100C1E0C1E0C30383E3830060E3E0E06000000000000005F00000007F3
:403BC000000700147F147F14242A7F2A12231308646236495620500008070300001C2241000041221C002A1C7F1C2A08083E08080080703000080808080800006060002091
:403C0000100804023E5149453E00427F400072494949462141494D331814127F1027454545393C4A49493141211109073649494936464949291E0000140000004034000096
:403C400000081422411414141414004122140802015909063E415D594E7C1211127C7F494949363E414141227F4141413E7F494949417F090909013E414151737F08080843
:403C80007F00417F41002040413F017F081422417F404040407F021C027F7F0408107F3E4141413E7F090909063E4151215E7F09192946264949493203017F01033F404037
:403CC000403F1F2040201F3F4038403F631408146303047804036159494D43007F4141410204081020004141417F04020102044040404040000307080020545478407F28FA
:403D00004444383844444428384444287F385454541800087E090218A4A49C787F0804047800447D40002040403D007F1028440000417F40007C047804787C08040478384F
:403D400044444438FC1824241818242418FC7C08040408485454542404043F44243C4040207C1C2040201C3C4030403C44281028444C9090907C4464544C44000836410009
:403D80000000770000004136080002010204023C2623263C1EA1A161123A4040207A385454555921555579412254547842215554784020545579400C1E5272123955555521
:403DC00059395454545939555454580000457C410002457D420001457C407D1211127DF0282528F07C545545002054547C547C0A097F4932494949323A4444443A324A4824
:403E000048303A4141217A3A42402078009DA0A07D3D4242423D3D4040403D3C24FF2424487E4943662B2FFC2F2BFF0929F620C0887E090320545479410000447D41304867
:403E4000484A32384040227A007A0A0A727D0D19317D2629292F28262929292630484D4020380808080808080808382F10C8ACBA2F102834FA00007B000008142A14222253
:403E8000142A14085500550055AA55AA55AAFF55FF55FF000000FF00101010FF00141414FF001010FF00FF1010F010F0141414FC001414F700FF0000FF00FF1414F404FC53
:403EC000141417101F10101F101F1414141F00101010F0000000001F101010101F10101010F010000000FF101010101010101010FF10000000FF140000FF00FF00001F10CF
:403F0000170000FC04F414141710171414F404F40000FF00F714141414141414F700F7141414171410101F101F141414F4141010F010F000001F101F0000001F14000000E2
:403F4000FC140000F010F01010FF10FF141414FF141010101F00000000F010FFFFFFFFFFF0F0F0F0F0FFFFFF0000000000FFFF0F0F0F0F0F3844443844FC4A4A4A347E02BA
:403F8000020606027E027E0263554941633844443C04407E201E2006027E020299A5E7A5991C2A492A1C4C7201724C304A4D4D303048784830BC625A463D3E494949007EB3
:403FC0000101017E2A2A2A2A2A44445F444440514A444040444A51400000FF0103E080FF000008086B6B083612362436060F090F06000018180000001010003040FF010125
:40400000001F01011E00191D1712003C3C3C3C000000000054465400252E2A7300000000427566666572206F766572666C6F770055415254207374617274656400000000D3
:40404000203A2000300000003A00000000000000851500000000000000000000000000000000000000000000000000000000000000000000000000000000000000000000C2
:40408000000000000000000000000000000000000000000000000000000000006D15000000000000000000000000000000000000000000000000000000000000000000007E
:4040C000000000000000000000000000010000000000000001000000EC4000000000000000000000010000000000000003000000004F00400C00405100403000F051004071
:40410000100000000140001000140140000800400140000A004C0140000200500140200060520040F80C004806000000FF0001010202020203030303030303030404040481
:4041400004040404040404040404040405050505050505050505050505050505050505050505050505050505050505050606060606060606060606060606060606060606F7
:40418000060606060606060606060606060606060606060606060606060606060606060606060606060606060606060607070707070707070707070707070707070707076B
:4041C00007070707070707070707070707070707070707070707070707070707070707070707070707070707070707070707070707070707070707070707070707070707FF
:4042000007070707070707070707070707070707070707070707070707070707070707070707070707070707070707070100000034420000000000000000000002000000D1
:404240000000000000000000FFFFFFFF030000000000000000000000A9050000FFFFFFFF03000000000000000000000031050000FFFFFFFF00000000000000000000000060
:4042800000000000010000000000000000000000020000000000000000000000010000000200000000000000010000000200000010270000010000000000000010000000AD
:4042C0000000000000000000000000000100000001000000010000000100000001000000800000000100000010000000100000000100000002000000000000000100000014
:4043000001000000100000001000000051010000510200003506000009060000992C0000992C0000992C0000992C0000000000000000000000000000000000000100000058
:40434000616C726D5F6379636C696300616C726D5F3235306D730000616C726D5F31730065765F6F6E5570646174650065765F316D7300007265735F4D795F5265736F75E9
:404380007263650074736B5F696E69740000000074736B5F6261636B67726F756E64000074736B5F696F000074736B5F636F6E74726F6C0043003031323334353637383902
:4043C0006162636465666768696A6B6C6D6E6F707172737475767778797A00232D302B2000686C4C006566674546470030313233343536373839414243444546003031327A
:4044000033343536373839616263646566000000F8B500BFF8BC08BC9E4670474D000000ED190000F8B500BFF8BC08BC9E4670472900000048440000C880FF1F300200000F
:40444000F006000000000000000000006838000003000000EC380000010005006838000003000000EC38000001000500F838000003000000EC380000010002000000000052
:4044800000000000C440000000000000000000009C4000000000170100003B010000000000000000744000000000170100003B0100000000000000004C400000E889FF1FA5
:4044C000404300004C4300005843000000000000FFFFFFFFFFFFFFFFFFFFFFFFFFFFFFFFFFFFFFFFFFFFFFFFFFFFFFFFFFFFFFFFFFFFFFFFFFFFFFFF010000000200000034
:4045000003000000FFFFFFFF0000000000000000040000000400000001000000010000000100000001000000FFFFFFFFFFFFFFFFFFFFFFFFFFFFFFFFFFFFFFFFFFFFFFFF88
:40454000FFFFFFFFFFFFFFFFFFFFFFFFFFFFFFFFFFFFFFFFFFFFFFFFFFFFFFFFFFFFFFFFFFFFFFFFFFFFFFFFFFFFFFFFFFFFFFFFFFFFFFFFFFFFFFFFFFFFFFFFFFFFFFFF7B
:40458000FFFFFFFFFFFFFFFFFFFFFFFFFFFFFFFFFFFFFFFFFFFFFFFFFFFFFFFFFFFFFFFFFFFFFFFFFFFFFFFFFFFFFFFFFFFFFFFFFFFFFFFFFFFFFFFFFFFFFFFF0300000034
:4045C000030000000300000003000000604300006C430000744300008443000090430000A0430000A8430000E489FF1F00000000BC87FF1F7F800000030000000000E02E45
:40460000C05D00001800000000366E01000000000000000000000000000000000000000000000000000000000000000000000000B4430000000000000000000000000000A9
:404640000000000000000000000000000000000000000000000000000000000000000000000000000000000000000000000000009082FF1F0000000000000000000000000A
:4046800000000000000000000000000000000000000000000000000000000000000000000000000000000000000000000000000000000000000000000000000000000000FA
:4046C00000000000000000000000000000000000000000000000000000000000000000000000000000000000000000000000000000000000000000000000000000000000BA
:404700000000000000000000000000000000000000000000000000000000000000000000000000000000000000000000000000000000000000000000000000000000000079
:404740000000000000000000000000000000000000000000000000000000000000000000000000000000000000000000000000000000000000000000000000000000000039
:020000040003F7
:0200000480007A
:40000000024F004005520040015B004002640040036500400E000140270101402202014034030140350401404505014013060140410701403A08014047090140540A01407E
:40004000460B0140500C0140430D0140650E0140330F014030140140401501403C160140471701403718014049190140421A0140451B014009400140104101400D4201401F
:400080000A430140044401400945014006460140074701400648014004490140134C01400C4D01400A5001400251014001400A3600010896093510281128278484018B0F5F
:4000C000870F88388A72070113022601310233013401580459045C225F01D804D904DC22DF010044020403080440051008010A030B200C010D180E81102012081604180470
:400100001910204021082208280129102A042F9830023108338035103648384039243B203C408E04C0C7C2FDC446CAEECC7BCE1E050409030D020F011104150319031D0395
:400140002303250329042D0431043501370239023F01580459045C225F018901AD01B101B902BF01D203D302D804D904DB04DC22DD20DF01004002040440051008010908E2
:400180000A030C010D080E01104414401502160821022402278829102B122EA82F8031483201355036083702384039203A043C643F2069606A908001862090409504960290
:4001C000972099109C019E04A108A208A422A780C0C3C2BDC45ACAFECCFBCE7E030205080610080209200B100D400F80118013401408170819011A011D041E0221022204F5
:4002000025102608272028012B012C042F0435FF361F38803E403F105602573D580459045B0C5C025D205F0194019F01A101AE03AF02B103B202B601D401D80FD904DB0F2C
:40024000DC92DD20DF01006801200380084209080A040E2010051105178018021A021B801E201F4020082780284529542A1E2F413022310833403780384039164BC05A10FE
:400280005F406102680269156B407020720679407E40811090509140929095069602972099109C059D409E0CA10AA432A782A814AF80B30AB680C00FC22FC48FCA9FCC1F1C
:4002C000CE0FD614D801DE88E404E820EC10EE815608580459045B045C225D905F018201A301AA02B101B202B601D440D804D904DB04DC22DF01004001010210044205043F
:400300000710080209080A020D080E200F801040111012021502161019441A021B402101220229442A022B022C442F803108320233803544361238403A103C405E406010BF
:4003400062A067028EC0905291119502970298049A129C029D44A108A380AD21AF50B440B702C0BDC23DC43BCAABCCFBCE1CD610D81EE440EC02EE040A0116011801300116
:400380003E015409580459045B045C225F01840E850D89028B088D0D9102930D9403950196049702980599029A0A9B04A10DA404A50DA609AD0DB10FB40FB820BB02C06018
:4003C000C102C9FFCAFFCBFFCDA0CF04D018D804D904DA04DB04DD01DF01E040E2C0E440E540E6C0E8C0EAC0ECC0EEC0000404200680070209280E280F021108142615018E
:4004000018041E4021022A012B222C402D202E80312A342638A83D013E02411049105C015D105E405F04670269846A11702071417220810182108F8090A9913093069508C0
:40044000982299109A039B089C409D209E80A004A12CA214A3A2AC12AD10AF01B420C0D4C2E6C4F4CABBCCE7CE8ED004D204D6F0D810E005E240E840EE441201340140608E
:40048000410245014620480949FF4AFF4BFF4DAF4E0F4F0450185280580459045A045B045C215D115F01604062C06440654066C068C06AC06CC06EC0818085898706892355
:4004C0008B4C8D10911095C5972A99029B0DA510A910AF10B3E0B50FB710BB28BF40C026C103C250C5BEC60DC7CFC837C9FFCAFFCBFFCC22CEF0CF08D004D602D724D80454
:40050000D904DA04DB04DC02DF01E2C0E440E501E610E711E8C0E901EB11EC40ED01EE40EF010520068209020C500D0410101308142018041910242325042628286029209B
:400540002C082E042F023010362539883A823C803D083F1241104528481049104C014E484F045110540457815E205F10623066106C6C6D026E066F227102744076018202E1
:40058000930294A4958896849C729E03A128A214A478A505A601A783AB02B640C0D0C2E8C420CA77CCE4CEFBD064D234D8200301050208010D021102140118012302290211
:4005C0002F023001330137023E013F404060410349FF4AFF4BFF4DA04F0450185280580459045A045B045C125D115F01604062C06440654066C068C06AC06CC06EC0860818
:400600008A0892019A02A204A602AA04B004B208B401B602C060C102C501C620C809C9FFCAFFCBFFCDAFCE0FCF04D018D280D804D904DA04DB04DC21DD11DF01E040E2C0FE
:40064000E440E540E6C0E8C0EAC0ECC0EEC0002404280501060209020A080D400E28110112281462181019101A4A1F012608270228602C082F823010310132023601380869
:4006800039883A023B443C823E044110461049104A204E04511052107102740180108601910194A0968097449C709E03A128A216A428A505A608A703A810AA80B104B20143
:4006C000C0F6C2EAC4BECAB3CC85CEDBD044D224E403EC0501100404050407180801091C0B030C040D101060140716381710180A19101A101C041F0220042456250126096A
:40070000270C29042A042B1B2C042D10327F331C370338083B084060410149FF4AFF4BFF4DA04F045018580459045A045D015F01604062C06440654066C068C06AC06CC0D2
:400740006EC08018820284138604881C8A038C1A9402961898019A189C02A418A818AA02AC1AB213B40FBA20C060C105C510C602C806C9FFCAFFCBFFCDAFCE0FCF04D018FA
:40078000D804D904DA04DC20DD01DF01E040E2C0E440E540E6C0E8C0EAC0ECC0EEC00010031204A00504064009280A810C080E080F021008110A12011508160117101810B3
:4007C0001D3C1E282104228029142A402B022C503028328033103420360238A039083A013E023F4443804A084D014E084F8057C08E02C0F7C2EFC4EFCACECCAECEDFD00872
:40080000D234E410041005040C2C0E111030120C1A031C091E101F022040210624142501281C2A222D063306341F35013660388039083F144003464049FF4A074BFF4C40D7
:400840004D204EF04F055008580459045A045C235D035F01604061A862406320D804D904DC22DF01018002200440068007100A460D090F1010A012041404150119401A06F0
:400880001B102114280429812B102C042D012E802F123080310833123710384639013A043B203C403F104104508052205340851187109046910292409780980499819B10EF
:4008C0009D40A020A108A302A480A620AC20AD40B508C0B5C23BC45ECAFFCC2FCE3FD002E002EC2038203E10580459045C225F0186208710890C8B138C038E349003911155
:40090000921C9306942A96149A289B089F13A111A215A30EA440A803AA04AF0CB00FB440B50FB638B710BA82BB20BE10BF40C045C101C50BC6E0C70CC819C9FFCAFFCBFF83
:40094000CEF0CF44D00CD401D804D904DA04DB04DC33DD33DF01E6C0EA40EB020180022004400680071008200A600D090EA00F08108812101320140419811A481B801C0812
:4009800020042110225029402B802C042E802F0230803101322034023650380839203C403F084240438048204B80500C521058015A885B208401861088048C018F0490427C
:4009C000910298069B10A108A302A802A904AE20B140C0B5C27EC44ECA39CCBDCE56D009D208D60FE220EC01EE0202010E021A022E01300132023E0540514103420444065E
:400A000046E047C0482849FF4AFF4BFF4C624DA04EF04F41500C5418580459045A045B045C225D335F016640670269106A306B106D106E106F12800A82D19014924994011F
:400A40009626981FA81FB018B207B460B680BE10D804D904DC23DF010002048005190648070808080A540CC00D220E200F0211101420160117021A5A1F05286029202C80C8
:400A80002E883112328034203508368037023A024402464047044E06552056015E02670A780479087A107B2086208E808F2091849508982099209A229B0A9C049E80A02040
:400AC000A301A920AB02AC04AD40AE01B040B301C0F8C2FEC4B2CAD7CCFDCE01D0D0D230D680D830E048E888EC0801E7020903180518081009080C100D04100712081380F4
:400B0000140F1506181019FF1C061D991E091F4620042110240227662806299F2B202C092D822E063007311E32103301340E37F83A203B823F0456025712580459045B04D2
:400B40005C335D305F0186038A0390029101940195019F01A003A403A701A803AE03B101B603B902BB20D804D904DC33DF010150034005140AA40B020E600F401080120234
:400B80001318140C1582170419151B201E02214122C624802520270429542A022F2030043120325136823704382839023B405A0869506A04709472027318800281048361D1
:400BC000880189408A10924294809510960498089C029D019F04A401A603A940AC20AD04B50AB682C06BC23FC4FFCA4FCCDFCE0FD602E002E803EC321108168030803720AF
:400C00003B023E80C430CC30CE60042008040F40512057208320840497029F20A104A480C080C230D460E010E62053089702A104A480A602A810AF20B120B340B602D42030
:400C4000E820EA401B088D04A104A602A708AB01AC80C610EA10EE2070047D40DC01DE045B025D80660882088702A804A940D606D8011B042710B580C608C801EC02440192
:400C800080088308AB04B710D004EE02250264108810A602C880D8800202A602B102C0405240540858045B205C805F0861026408840498089A409B089C01A008AC08AE40AA
:400CC000D407D607D8031040700884088840AB20AC80AD02B001C408DC01E201EC040007010108040A050B010C070E07100C1A0C1C0C000F100A00001084000040000000B3
:400D000038C0C00000030300800040BCBC00B4000000000000FFFF00FF000000003939003800000004383800080000000001000000000000000000000000000000000000E5
:400D40000000000000000000000000000000000000000000000000000000000000000000000000000000000000000000000000000000000000000000000000000000000073
:400D80000000000000000000000000000000000000000000000000000000000000000000000000000000000000000000000000000000000000000000000000000000000033
:400DC00000000000000000000000000000000000000000000000000000000000000000000000000000000000000000000000000000000000000000000000000000000000F3
:400E000000000000000000000000000000000000000000000000000000000000000000000000000000000000000000000000000000000000000000000000000000000000B2
:0200000490006A
:0400000000004007B5
:0200000490105A
:04000000BC90ACAF55
:0200000490303A
:02000000CF5CD3
:0200000490402A
:4000000000000000000000000000000000000000000000000000000000000000000000000000000000000000000000000000000000000000000000000000000000000000C0
:400040000000000000000000000000000000000000000000000000000000000000000000000000000000000000000000000000000000000000000000000000000000000080
:400080000000000000000000000000000000000000000000000000000000000000000000000000000000000000000000000000000000000000000000000000000000000040
:4000C0000000000000000000000000000000000000000000000000000000000000000000000000000000000000000000000000000000000000000000000000000000000000
:0200000490501A
:0C00000000012E16106900012E32DFC531
:00000001FF